{
	"task1/BinarySearch.sol": {
		"BinarySearch": {
			"abi": [
				{
					"inputs": [
						{
							"internalType": "int256[]",
							"name": "arr",
							"type": "int256[]"
						},
						{
							"internalType": "int256",
							"name": "target",
							"type": "int256"
						}
					],
					"name": "BiSearch",
					"outputs": [
						{
							"internalType": "int256",
							"name": "",
							"type": "int256"
						}
					],
					"stateMutability": "pure",
					"type": "function"
				}
			],
			"devdoc": {
				"kind": "dev",
				"methods": {},
				"version": 1
			},
			"evm": {
				"assembly": "    /* \"task1/BinarySearch.sol\":60:1019  contract BinarySearch {... */\n  mstore(0x40, 0x80)\n  callvalue\n  dup1\n  iszero\n  tag_1\n  jumpi\n  revert(0x00, 0x00)\ntag_1:\n  pop\n  dataSize(sub_0)\n  dup1\n  dataOffset(sub_0)\n  0x00\n  codecopy\n  0x00\n  return\nstop\n\nsub_0: assembly {\n        /* \"task1/BinarySearch.sol\":60:1019  contract BinarySearch {... */\n      mstore(0x40, 0x80)\n      callvalue\n      dup1\n      iszero\n      tag_1\n      jumpi\n      revert(0x00, 0x00)\n    tag_1:\n      pop\n      jumpi(tag_2, lt(calldatasize, 0x04))\n      shr(0xe0, calldataload(0x00))\n      dup1\n      0xa43b8066\n      eq\n      tag_3\n      jumpi\n    tag_2:\n      revert(0x00, 0x00)\n        /* \"task1/BinarySearch.sol\":91:1016  function BiSearch(int[] memory arr, int target) public pure returns (int) {... */\n    tag_3:\n      tag_4\n      0x04\n      dup1\n      calldatasize\n      sub\n      dup2\n      add\n      swap1\n      tag_5\n      swap2\n      swap1\n      tag_6\n      jump\t// in\n    tag_5:\n      tag_7\n      jump\t// in\n    tag_4:\n      mload(0x40)\n      tag_8\n      swap2\n      swap1\n      tag_9\n      jump\t// in\n    tag_8:\n      mload(0x40)\n      dup1\n      swap2\n      sub\n      swap1\n      return\n    tag_7:\n        /* \"task1/BinarySearch.sol\":160:163  int */\n      0x00\n        /* \"task1/BinarySearch.sol\":230:231  0 */\n      0x00\n        /* \"task1/BinarySearch.sol\":216:219  arr */\n      dup4\n        /* \"task1/BinarySearch.sol\":216:226  arr.length */\n      mload\n        /* \"task1/BinarySearch.sol\":216:231  arr.length == 0 */\n      sub\n        /* \"task1/BinarySearch.sol\":212:269  if (arr.length == 0) {... */\n      tag_11\n      jumpi\n        /* \"task1/BinarySearch.sol\":255:257  -1 */\n      0xffffffffffffffffffffffffffffffffffffffffffffffffffffffffffffffff\n        /* \"task1/BinarySearch.sol\":248:257  return -1 */\n      swap1\n      pop\n      jump(tag_10)\n        /* \"task1/BinarySearch.sol\":212:269  if (arr.length == 0) {... */\n    tag_11:\n        /* \"task1/BinarySearch.sol\":279:288  uint left */\n      0x00\n        /* \"task1/BinarySearch.sol\":291:292  0 */\n      0x00\n        /* \"task1/BinarySearch.sol\":279:292  uint left = 0 */\n      swap1\n      pop\n        /* \"task1/BinarySearch.sol\":303:313  uint right */\n      0x00\n        /* \"task1/BinarySearch.sol\":329:330  1 */\n      0x01\n        /* \"task1/BinarySearch.sol\":316:319  arr */\n      dup6\n        /* \"task1/BinarySearch.sol\":316:326  arr.length */\n      mload\n        /* \"task1/BinarySearch.sol\":316:330  arr.length - 1 */\n      tag_12\n      swap2\n      swap1\n      tag_13\n      jump\t// in\n    tag_12:\n        /* \"task1/BinarySearch.sol\":303:330  uint right = arr.length - 1 */\n      swap1\n      pop\n        /* \"task1/BinarySearch.sol\":343:951  while (left <= right) {... */\n    tag_14:\n        /* \"task1/BinarySearch.sol\":358:363  right */\n      dup1\n        /* \"task1/BinarySearch.sol\":350:354  left */\n      dup3\n        /* \"task1/BinarySearch.sol\":350:363  left <= right */\n      gt\n        /* \"task1/BinarySearch.sol\":343:951  while (left <= right) {... */\n      tag_15\n      jumpi\n        /* \"task1/BinarySearch.sol\":456:464  uint mid */\n      0x00\n        /* \"task1/BinarySearch.sol\":491:492  2 */\n      0x02\n        /* \"task1/BinarySearch.sol\":483:487  left */\n      dup4\n        /* \"task1/BinarySearch.sol\":475:480  right */\n      dup4\n        /* \"task1/BinarySearch.sol\":475:487  right - left */\n      tag_16\n      swap2\n      swap1\n      tag_13\n      jump\t// in\n    tag_16:\n        /* \"task1/BinarySearch.sol\":474:492  (right - left) / 2 */\n      tag_17\n      swap2\n      swap1\n      tag_18\n      jump\t// in\n    tag_17:\n        /* \"task1/BinarySearch.sol\":467:471  left */\n      dup4\n        /* \"task1/BinarySearch.sol\":467:492  left + (right - left) / 2 */\n      tag_19\n      swap2\n      swap1\n      tag_20\n      jump\t// in\n    tag_19:\n        /* \"task1/BinarySearch.sol\":456:492  uint mid = left + (right - left) / 2 */\n      swap1\n      pop\n        /* \"task1/BinarySearch.sol\":537:543  target */\n      dup5\n        /* \"task1/BinarySearch.sol\":525:528  arr */\n      dup7\n        /* \"task1/BinarySearch.sol\":529:532  mid */\n      dup3\n        /* \"task1/BinarySearch.sol\":525:533  arr[mid] */\n      dup2\n      mload\n      dup2\n      lt\n      tag_21\n      jumpi\n      tag_22\n      tag_23\n      jump\t// in\n    tag_22:\n    tag_21:\n      0x20\n      mul\n      0x20\n      add\n      add\n      mload\n        /* \"task1/BinarySearch.sol\":525:543  arr[mid] == target */\n      sub\n        /* \"task1/BinarySearch.sol\":521:940  if (arr[mid] == target) {... */\n      tag_24\n      jumpi\n        /* \"task1/BinarySearch.sol\":575:578  mid */\n      dup1\n        /* \"task1/BinarySearch.sol\":564:579  return int(mid) */\n      swap4\n      pop\n      pop\n      pop\n      pop\n      jump(tag_10)\n        /* \"task1/BinarySearch.sol\":521:940  if (arr[mid] == target) {... */\n    tag_24:\n        /* \"task1/BinarySearch.sol\":635:641  target */\n      dup5\n        /* \"task1/BinarySearch.sol\":624:627  arr */\n      dup7\n        /* \"task1/BinarySearch.sol\":628:631  mid */\n      dup3\n        /* \"task1/BinarySearch.sol\":624:632  arr[mid] */\n      dup2\n      mload\n      dup2\n      lt\n      tag_26\n      jumpi\n      tag_27\n      tag_23\n      jump\t// in\n    tag_27:\n    tag_26:\n      0x20\n      mul\n      0x20\n      add\n      add\n      mload\n        /* \"task1/BinarySearch.sol\":624:641  arr[mid] < target */\n      slt\n        /* \"task1/BinarySearch.sol\":620:940  if (arr[mid] < target) {... */\n      iszero\n      tag_28\n      jumpi\n        /* \"task1/BinarySearch.sol\":675:676  1 */\n      0x01\n        /* \"task1/BinarySearch.sol\":669:672  mid */\n      dup2\n        /* \"task1/BinarySearch.sol\":669:676  mid + 1 */\n      tag_29\n      swap2\n      swap1\n      tag_20\n      jump\t// in\n    tag_29:\n        /* \"task1/BinarySearch.sol\":662:676  left = mid + 1 */\n      swap3\n      pop\n        /* \"task1/BinarySearch.sol\":620:940  if (arr[mid] < target) {... */\n      jump(tag_30)\n    tag_28:\n        /* \"task1/BinarySearch.sol\":812:813  0 */\n      0x00\n        /* \"task1/BinarySearch.sol\":805:808  mid */\n      dup2\n        /* \"task1/BinarySearch.sol\":805:813  mid == 0 */\n      sub\n        /* \"task1/BinarySearch.sol\":801:863  if (mid == 0) {... */\n      tag_31\n      jumpi\n        /* \"task1/BinarySearch.sol\":838:843  break */\n      pop\n      jump(tag_15)\n        /* \"task1/BinarySearch.sol\":801:863  if (mid == 0) {... */\n    tag_31:\n        /* \"task1/BinarySearch.sol\":895:896  1 */\n      0x01\n        /* \"task1/BinarySearch.sol\":889:892  mid */\n      dup2\n        /* \"task1/BinarySearch.sol\":889:896  mid - 1 */\n      tag_32\n      swap2\n      swap1\n      tag_13\n      jump\t// in\n    tag_32:\n        /* \"task1/BinarySearch.sol\":881:896  right = mid - 1 */\n      swap2\n      pop\n        /* \"task1/BinarySearch.sol\":620:940  if (arr[mid] < target) {... */\n    tag_30:\n        /* \"task1/BinarySearch.sol\":365:951  {... */\n      pop\n        /* \"task1/BinarySearch.sol\":343:951  while (left <= right) {... */\n      jump(tag_14)\n    tag_15:\n        /* \"task1/BinarySearch.sol\":978:980  -1 */\n      0xffffffffffffffffffffffffffffffffffffffffffffffffffffffffffffffff\n        /* \"task1/BinarySearch.sol\":971:980  return -1 */\n      swap3\n      pop\n      pop\n      pop\n        /* \"task1/BinarySearch.sol\":91:1016  function BiSearch(int[] memory arr, int target) public pure returns (int) {... */\n    tag_10:\n      swap3\n      swap2\n      pop\n      pop\n      jump\t// out\n        /* \"#utility.yul\":7:82   */\n    tag_33:\n        /* \"#utility.yul\":40:46   */\n      0x00\n        /* \"#utility.yul\":73:75   */\n      0x40\n        /* \"#utility.yul\":67:76   */\n      mload\n        /* \"#utility.yul\":57:76   */\n      swap1\n      pop\n        /* \"#utility.yul\":7:82   */\n      swap1\n      jump\t// out\n        /* \"#utility.yul\":88:205   */\n    tag_34:\n        /* \"#utility.yul\":197:198   */\n      0x00\n        /* \"#utility.yul\":194:195   */\n      0x00\n        /* \"#utility.yul\":187:199   */\n      revert\n        /* \"#utility.yul\":211:328   */\n    tag_35:\n        /* \"#utility.yul\":320:321   */\n      0x00\n        /* \"#utility.yul\":317:318   */\n      0x00\n        /* \"#utility.yul\":310:322   */\n      revert\n        /* \"#utility.yul\":334:451   */\n    tag_36:\n        /* \"#utility.yul\":443:444   */\n      0x00\n        /* \"#utility.yul\":440:441   */\n      0x00\n        /* \"#utility.yul\":433:445   */\n      revert\n        /* \"#utility.yul\":457:559   */\n    tag_37:\n        /* \"#utility.yul\":498:504   */\n      0x00\n        /* \"#utility.yul\":549:551   */\n      0x1f\n        /* \"#utility.yul\":545:552   */\n      not\n        /* \"#utility.yul\":540:542   */\n      0x1f\n        /* \"#utility.yul\":533:538   */\n      dup4\n        /* \"#utility.yul\":529:543   */\n      add\n        /* \"#utility.yul\":525:553   */\n      and\n        /* \"#utility.yul\":515:553   */\n      swap1\n      pop\n        /* \"#utility.yul\":457:559   */\n      swap2\n      swap1\n      pop\n      jump\t// out\n        /* \"#utility.yul\":565:745   */\n    tag_38:\n        /* \"#utility.yul\":613:690   */\n      0x4e487b7100000000000000000000000000000000000000000000000000000000\n        /* \"#utility.yul\":610:611   */\n      0x00\n        /* \"#utility.yul\":603:691   */\n      mstore\n        /* \"#utility.yul\":710:714   */\n      0x41\n        /* \"#utility.yul\":707:708   */\n      0x04\n        /* \"#utility.yul\":700:715   */\n      mstore\n        /* \"#utility.yul\":734:738   */\n      0x24\n        /* \"#utility.yul\":731:732   */\n      0x00\n        /* \"#utility.yul\":724:739   */\n      revert\n        /* \"#utility.yul\":751:1032   */\n    tag_39:\n        /* \"#utility.yul\":834:861   */\n      tag_60\n        /* \"#utility.yul\":856:860   */\n      dup3\n        /* \"#utility.yul\":834:861   */\n      tag_37\n      jump\t// in\n    tag_60:\n        /* \"#utility.yul\":826:832   */\n      dup2\n        /* \"#utility.yul\":822:862   */\n      add\n        /* \"#utility.yul\":964:970   */\n      dup2\n        /* \"#utility.yul\":952:962   */\n      dup2\n        /* \"#utility.yul\":949:971   */\n      lt\n        /* \"#utility.yul\":928:946   */\n      0xffffffffffffffff\n        /* \"#utility.yul\":916:926   */\n      dup3\n        /* \"#utility.yul\":913:947   */\n      gt\n        /* \"#utility.yul\":910:972   */\n      or\n        /* \"#utility.yul\":907:995   */\n      iszero\n      tag_61\n      jumpi\n        /* \"#utility.yul\":975:993   */\n      tag_62\n      tag_38\n      jump\t// in\n    tag_62:\n        /* \"#utility.yul\":907:995   */\n    tag_61:\n        /* \"#utility.yul\":1015:1025   */\n      dup1\n        /* \"#utility.yul\":1011:1013   */\n      0x40\n        /* \"#utility.yul\":1004:1026   */\n      mstore\n        /* \"#utility.yul\":794:1032   */\n      pop\n        /* \"#utility.yul\":751:1032   */\n      pop\n      pop\n      jump\t// out\n        /* \"#utility.yul\":1038:1167   */\n    tag_40:\n        /* \"#utility.yul\":1072:1078   */\n      0x00\n        /* \"#utility.yul\":1099:1119   */\n      tag_64\n      tag_33\n      jump\t// in\n    tag_64:\n        /* \"#utility.yul\":1089:1119   */\n      swap1\n      pop\n        /* \"#utility.yul\":1128:1161   */\n      tag_65\n        /* \"#utility.yul\":1156:1160   */\n      dup3\n        /* \"#utility.yul\":1148:1154   */\n      dup3\n        /* \"#utility.yul\":1128:1161   */\n      tag_39\n      jump\t// in\n    tag_65:\n        /* \"#utility.yul\":1038:1167   */\n      swap2\n      swap1\n      pop\n      jump\t// out\n        /* \"#utility.yul\":1173:1483   */\n    tag_41:\n        /* \"#utility.yul\":1249:1253   */\n      0x00\n        /* \"#utility.yul\":1339:1357   */\n      0xffffffffffffffff\n        /* \"#utility.yul\":1331:1337   */\n      dup3\n        /* \"#utility.yul\":1328:1358   */\n      gt\n        /* \"#utility.yul\":1325:1381   */\n      iszero\n      tag_67\n      jumpi\n        /* \"#utility.yul\":1361:1379   */\n      tag_68\n      tag_38\n      jump\t// in\n    tag_68:\n        /* \"#utility.yul\":1325:1381   */\n    tag_67:\n        /* \"#utility.yul\":1411:1415   */\n      0x20\n        /* \"#utility.yul\":1403:1409   */\n      dup3\n        /* \"#utility.yul\":1399:1416   */\n      mul\n        /* \"#utility.yul\":1391:1416   */\n      swap1\n      pop\n        /* \"#utility.yul\":1471:1475   */\n      0x20\n        /* \"#utility.yul\":1465:1469   */\n      dup2\n        /* \"#utility.yul\":1461:1476   */\n      add\n        /* \"#utility.yul\":1453:1476   */\n      swap1\n      pop\n        /* \"#utility.yul\":1173:1483   */\n      swap2\n      swap1\n      pop\n      jump\t// out\n        /* \"#utility.yul\":1489:1606   */\n    tag_42:\n        /* \"#utility.yul\":1598:1599   */\n      0x00\n        /* \"#utility.yul\":1595:1596   */\n      0x00\n        /* \"#utility.yul\":1588:1600   */\n      revert\n        /* \"#utility.yul\":1612:1688   */\n    tag_43:\n        /* \"#utility.yul\":1648:1655   */\n      0x00\n        /* \"#utility.yul\":1677:1682   */\n      dup2\n        /* \"#utility.yul\":1666:1682   */\n      swap1\n      pop\n        /* \"#utility.yul\":1612:1688   */\n      swap2\n      swap1\n      pop\n      jump\t// out\n        /* \"#utility.yul\":1694:1814   */\n    tag_44:\n        /* \"#utility.yul\":1766:1789   */\n      tag_72\n        /* \"#utility.yul\":1783:1788   */\n      dup2\n        /* \"#utility.yul\":1766:1789   */\n      tag_43\n      jump\t// in\n    tag_72:\n        /* \"#utility.yul\":1759:1764   */\n      dup2\n        /* \"#utility.yul\":1756:1790   */\n      eq\n        /* \"#utility.yul\":1746:1808   */\n      tag_73\n      jumpi\n        /* \"#utility.yul\":1804:1805   */\n      0x00\n        /* \"#utility.yul\":1801:1802   */\n      0x00\n        /* \"#utility.yul\":1794:1806   */\n      revert\n        /* \"#utility.yul\":1746:1808   */\n    tag_73:\n        /* \"#utility.yul\":1694:1814   */\n      pop\n      jump\t// out\n        /* \"#utility.yul\":1820:1957   */\n    tag_45:\n        /* \"#utility.yul\":1865:1870   */\n      0x00\n        /* \"#utility.yul\":1903:1909   */\n      dup2\n        /* \"#utility.yul\":1890:1910   */\n      calldataload\n        /* \"#utility.yul\":1881:1910   */\n      swap1\n      pop\n        /* \"#utility.yul\":1919:1951   */\n      tag_75\n        /* \"#utility.yul\":1945:1950   */\n      dup2\n        /* \"#utility.yul\":1919:1951   */\n      tag_44\n      jump\t// in\n    tag_75:\n        /* \"#utility.yul\":1820:1957   */\n      swap3\n      swap2\n      pop\n      pop\n      jump\t// out\n        /* \"#utility.yul\":1979:2686   */\n    tag_46:\n        /* \"#utility.yul\":2074:2079   */\n      0x00\n        /* \"#utility.yul\":2099:2179   */\n      tag_77\n        /* \"#utility.yul\":2115:2178   */\n      tag_78\n        /* \"#utility.yul\":2171:2177   */\n      dup5\n        /* \"#utility.yul\":2115:2178   */\n      tag_41\n      jump\t// in\n    tag_78:\n        /* \"#utility.yul\":2099:2179   */\n      tag_40\n      jump\t// in\n    tag_77:\n        /* \"#utility.yul\":2090:2179   */\n      swap1\n      pop\n        /* \"#utility.yul\":2199:2204   */\n      dup1\n        /* \"#utility.yul\":2228:2234   */\n      dup4\n        /* \"#utility.yul\":2221:2226   */\n      dup3\n        /* \"#utility.yul\":2214:2235   */\n      mstore\n        /* \"#utility.yul\":2262:2266   */\n      0x20\n        /* \"#utility.yul\":2255:2260   */\n      dup3\n        /* \"#utility.yul\":2251:2267   */\n      add\n        /* \"#utility.yul\":2244:2267   */\n      swap1\n      pop\n        /* \"#utility.yul\":2315:2319   */\n      0x20\n        /* \"#utility.yul\":2307:2313   */\n      dup5\n        /* \"#utility.yul\":2303:2320   */\n      mul\n        /* \"#utility.yul\":2295:2301   */\n      dup4\n        /* \"#utility.yul\":2291:2321   */\n      add\n        /* \"#utility.yul\":2344:2347   */\n      dup6\n        /* \"#utility.yul\":2336:2342   */\n      dup2\n        /* \"#utility.yul\":2333:2348   */\n      gt\n        /* \"#utility.yul\":2330:2452   */\n      iszero\n      tag_79\n      jumpi\n        /* \"#utility.yul\":2363:2442   */\n      tag_80\n      tag_42\n      jump\t// in\n    tag_80:\n        /* \"#utility.yul\":2330:2452   */\n    tag_79:\n        /* \"#utility.yul\":2478:2484   */\n      dup4\n        /* \"#utility.yul\":2461:2680   */\n    tag_81:\n        /* \"#utility.yul\":2495:2501   */\n      dup2\n        /* \"#utility.yul\":2490:2493   */\n      dup2\n        /* \"#utility.yul\":2487:2502   */\n      lt\n        /* \"#utility.yul\":2461:2680   */\n      iszero\n      tag_83\n      jumpi\n        /* \"#utility.yul\":2570:2573   */\n      dup1\n        /* \"#utility.yul\":2599:2635   */\n      tag_84\n        /* \"#utility.yul\":2631:2634   */\n      dup9\n        /* \"#utility.yul\":2619:2629   */\n      dup3\n        /* \"#utility.yul\":2599:2635   */\n      tag_45\n      jump\t// in\n    tag_84:\n        /* \"#utility.yul\":2594:2597   */\n      dup5\n        /* \"#utility.yul\":2587:2636   */\n      mstore\n        /* \"#utility.yul\":2665:2669   */\n      0x20\n        /* \"#utility.yul\":2660:2663   */\n      dup5\n        /* \"#utility.yul\":2656:2670   */\n      add\n        /* \"#utility.yul\":2649:2670   */\n      swap4\n      pop\n        /* \"#utility.yul\":2537:2680   */\n      pop\n        /* \"#utility.yul\":2521:2525   */\n      0x20\n        /* \"#utility.yul\":2516:2519   */\n      dup2\n        /* \"#utility.yul\":2512:2526   */\n      add\n        /* \"#utility.yul\":2505:2526   */\n      swap1\n      pop\n        /* \"#utility.yul\":2461:2680   */\n      jump(tag_81)\n    tag_83:\n        /* \"#utility.yul\":2465:2486   */\n      pop\n        /* \"#utility.yul\":2080:2686   */\n      pop\n      pop\n        /* \"#utility.yul\":1979:2686   */\n      swap4\n      swap3\n      pop\n      pop\n      pop\n      jump\t// out\n        /* \"#utility.yul\":2708:3076   */\n    tag_47:\n        /* \"#utility.yul\":2778:2783   */\n      0x00\n        /* \"#utility.yul\":2827:2830   */\n      dup3\n        /* \"#utility.yul\":2820:2824   */\n      0x1f\n        /* \"#utility.yul\":2812:2818   */\n      dup4\n        /* \"#utility.yul\":2808:2825   */\n      add\n        /* \"#utility.yul\":2804:2831   */\n      slt\n        /* \"#utility.yul\":2794:2916   */\n      tag_86\n      jumpi\n        /* \"#utility.yul\":2835:2914   */\n      tag_87\n      tag_36\n      jump\t// in\n    tag_87:\n        /* \"#utility.yul\":2794:2916   */\n    tag_86:\n        /* \"#utility.yul\":2952:2958   */\n      dup2\n        /* \"#utility.yul\":2939:2959   */\n      calldataload\n        /* \"#utility.yul\":2977:3070   */\n      tag_88\n        /* \"#utility.yul\":3066:3069   */\n      dup5\n        /* \"#utility.yul\":3058:3064   */\n      dup3\n        /* \"#utility.yul\":3051:3055   */\n      0x20\n        /* \"#utility.yul\":3043:3049   */\n      dup7\n        /* \"#utility.yul\":3039:3056   */\n      add\n        /* \"#utility.yul\":2977:3070   */\n      tag_46\n      jump\t// in\n    tag_88:\n        /* \"#utility.yul\":2968:3070   */\n      swap2\n      pop\n        /* \"#utility.yul\":2784:3076   */\n      pop\n        /* \"#utility.yul\":2708:3076   */\n      swap3\n      swap2\n      pop\n      pop\n      jump\t// out\n        /* \"#utility.yul\":3082:3762   */\n    tag_6:\n        /* \"#utility.yul\":3173:3179   */\n      0x00\n        /* \"#utility.yul\":3181:3187   */\n      0x00\n        /* \"#utility.yul\":3230:3232   */\n      0x40\n        /* \"#utility.yul\":3218:3227   */\n      dup4\n        /* \"#utility.yul\":3209:3216   */\n      dup6\n        /* \"#utility.yul\":3205:3228   */\n      sub\n        /* \"#utility.yul\":3201:3233   */\n      slt\n        /* \"#utility.yul\":3198:3317   */\n      iszero\n      tag_90\n      jumpi\n        /* \"#utility.yul\":3236:3315   */\n      tag_91\n      tag_34\n      jump\t// in\n    tag_91:\n        /* \"#utility.yul\":3198:3317   */\n    tag_90:\n        /* \"#utility.yul\":3384:3385   */\n      0x00\n        /* \"#utility.yul\":3373:3382   */\n      dup4\n        /* \"#utility.yul\":3369:3386   */\n      add\n        /* \"#utility.yul\":3356:3387   */\n      calldataload\n        /* \"#utility.yul\":3414:3432   */\n      0xffffffffffffffff\n        /* \"#utility.yul\":3406:3412   */\n      dup2\n        /* \"#utility.yul\":3403:3433   */\n      gt\n        /* \"#utility.yul\":3400:3517   */\n      iszero\n      tag_92\n      jumpi\n        /* \"#utility.yul\":3436:3515   */\n      tag_93\n      tag_35\n      jump\t// in\n    tag_93:\n        /* \"#utility.yul\":3400:3517   */\n    tag_92:\n        /* \"#utility.yul\":3541:3618   */\n      tag_94\n        /* \"#utility.yul\":3610:3617   */\n      dup6\n        /* \"#utility.yul\":3601:3607   */\n      dup3\n        /* \"#utility.yul\":3590:3599   */\n      dup7\n        /* \"#utility.yul\":3586:3608   */\n      add\n        /* \"#utility.yul\":3541:3618   */\n      tag_47\n      jump\t// in\n    tag_94:\n        /* \"#utility.yul\":3531:3618   */\n      swap3\n      pop\n        /* \"#utility.yul\":3327:3628   */\n      pop\n        /* \"#utility.yul\":3667:3669   */\n      0x20\n        /* \"#utility.yul\":3693:3745   */\n      tag_95\n        /* \"#utility.yul\":3737:3744   */\n      dup6\n        /* \"#utility.yul\":3728:3734   */\n      dup3\n        /* \"#utility.yul\":3717:3726   */\n      dup7\n        /* \"#utility.yul\":3713:3735   */\n      add\n        /* \"#utility.yul\":3693:3745   */\n      tag_45\n      jump\t// in\n    tag_95:\n        /* \"#utility.yul\":3683:3745   */\n      swap2\n      pop\n        /* \"#utility.yul\":3638:3755   */\n      pop\n        /* \"#utility.yul\":3082:3762   */\n      swap3\n      pop\n      swap3\n      swap1\n      pop\n      jump\t// out\n        /* \"#utility.yul\":3768:3883   */\n    tag_48:\n        /* \"#utility.yul\":3853:3876   */\n      tag_97\n        /* \"#utility.yul\":3870:3875   */\n      dup2\n        /* \"#utility.yul\":3853:3876   */\n      tag_43\n      jump\t// in\n    tag_97:\n        /* \"#utility.yul\":3848:3851   */\n      dup3\n        /* \"#utility.yul\":3841:3877   */\n      mstore\n        /* \"#utility.yul\":3768:3883   */\n      pop\n      pop\n      jump\t// out\n        /* \"#utility.yul\":3889:4107   */\n    tag_9:\n        /* \"#utility.yul\":3980:3984   */\n      0x00\n        /* \"#utility.yul\":4018:4020   */\n      0x20\n        /* \"#utility.yul\":4007:4016   */\n      dup3\n        /* \"#utility.yul\":4003:4021   */\n      add\n        /* \"#utility.yul\":3995:4021   */\n      swap1\n      pop\n        /* \"#utility.yul\":4031:4100   */\n      tag_99\n        /* \"#utility.yul\":4097:4098   */\n      0x00\n        /* \"#utility.yul\":4086:4095   */\n      dup4\n        /* \"#utility.yul\":4082:4099   */\n      add\n        /* \"#utility.yul\":4073:4079   */\n      dup5\n        /* \"#utility.yul\":4031:4100   */\n      tag_48\n      jump\t// in\n    tag_99:\n        /* \"#utility.yul\":3889:4107   */\n      swap3\n      swap2\n      pop\n      pop\n      jump\t// out\n        /* \"#utility.yul\":4113:4190   */\n    tag_49:\n        /* \"#utility.yul\":4150:4157   */\n      0x00\n        /* \"#utility.yul\":4179:4184   */\n      dup2\n        /* \"#utility.yul\":4168:4184   */\n      swap1\n      pop\n        /* \"#utility.yul\":4113:4190   */\n      swap2\n      swap1\n      pop\n      jump\t// out\n        /* \"#utility.yul\":4196:4376   */\n    tag_50:\n        /* \"#utility.yul\":4244:4321   */\n      0x4e487b7100000000000000000000000000000000000000000000000000000000\n        /* \"#utility.yul\":4241:4242   */\n      0x00\n        /* \"#utility.yul\":4234:4322   */\n      mstore\n        /* \"#utility.yul\":4341:4345   */\n      0x11\n        /* \"#utility.yul\":4338:4339   */\n      0x04\n        /* \"#utility.yul\":4331:4346   */\n      mstore\n        /* \"#utility.yul\":4365:4369   */\n      0x24\n        /* \"#utility.yul\":4362:4363   */\n      0x00\n        /* \"#utility.yul\":4355:4370   */\n      revert\n        /* \"#utility.yul\":4382:4576   */\n    tag_13:\n        /* \"#utility.yul\":4422:4426   */\n      0x00\n        /* \"#utility.yul\":4442:4462   */\n      tag_103\n        /* \"#utility.yul\":4460:4461   */\n      dup3\n        /* \"#utility.yul\":4442:4462   */\n      tag_49\n      jump\t// in\n    tag_103:\n        /* \"#utility.yul\":4437:4462   */\n      swap2\n      pop\n        /* \"#utility.yul\":4476:4496   */\n      tag_104\n        /* \"#utility.yul\":4494:4495   */\n      dup4\n        /* \"#utility.yul\":4476:4496   */\n      tag_49\n      jump\t// in\n    tag_104:\n        /* \"#utility.yul\":4471:4496   */\n      swap3\n      pop\n        /* \"#utility.yul\":4520:4521   */\n      dup3\n        /* \"#utility.yul\":4517:4518   */\n      dup3\n        /* \"#utility.yul\":4513:4522   */\n      sub\n        /* \"#utility.yul\":4505:4522   */\n      swap1\n      pop\n        /* \"#utility.yul\":4544:4545   */\n      dup2\n        /* \"#utility.yul\":4538:4542   */\n      dup2\n        /* \"#utility.yul\":4535:4546   */\n      gt\n        /* \"#utility.yul\":4532:4569   */\n      iszero\n      tag_105\n      jumpi\n        /* \"#utility.yul\":4549:4567   */\n      tag_106\n      tag_50\n      jump\t// in\n    tag_106:\n        /* \"#utility.yul\":4532:4569   */\n    tag_105:\n        /* \"#utility.yul\":4382:4576   */\n      swap3\n      swap2\n      pop\n      pop\n      jump\t// out\n        /* \"#utility.yul\":4582:4762   */\n    tag_51:\n        /* \"#utility.yul\":4630:4707   */\n      0x4e487b7100000000000000000000000000000000000000000000000000000000\n        /* \"#utility.yul\":4627:4628   */\n      0x00\n        /* \"#utility.yul\":4620:4708   */\n      mstore\n        /* \"#utility.yul\":4727:4731   */\n      0x12\n        /* \"#utility.yul\":4724:4725   */\n      0x04\n        /* \"#utility.yul\":4717:4732   */\n      mstore\n        /* \"#utility.yul\":4751:4755   */\n      0x24\n        /* \"#utility.yul\":4748:4749   */\n      0x00\n        /* \"#utility.yul\":4741:4756   */\n      revert\n        /* \"#utility.yul\":4768:4953   */\n    tag_18:\n        /* \"#utility.yul\":4808:4809   */\n      0x00\n        /* \"#utility.yul\":4825:4845   */\n      tag_109\n        /* \"#utility.yul\":4843:4844   */\n      dup3\n        /* \"#utility.yul\":4825:4845   */\n      tag_49\n      jump\t// in\n    tag_109:\n        /* \"#utility.yul\":4820:4845   */\n      swap2\n      pop\n        /* \"#utility.yul\":4859:4879   */\n      tag_110\n        /* \"#utility.yul\":4877:4878   */\n      dup4\n        /* \"#utility.yul\":4859:4879   */\n      tag_49\n      jump\t// in\n    tag_110:\n        /* \"#utility.yul\":4854:4879   */\n      swap3\n      pop\n        /* \"#utility.yul\":4898:4899   */\n      dup3\n        /* \"#utility.yul\":4888:4923   */\n      tag_111\n      jumpi\n        /* \"#utility.yul\":4903:4921   */\n      tag_112\n      tag_51\n      jump\t// in\n    tag_112:\n        /* \"#utility.yul\":4888:4923   */\n    tag_111:\n        /* \"#utility.yul\":4945:4946   */\n      dup3\n        /* \"#utility.yul\":4942:4943   */\n      dup3\n        /* \"#utility.yul\":4938:4947   */\n      div\n        /* \"#utility.yul\":4933:4947   */\n      swap1\n      pop\n        /* \"#utility.yul\":4768:4953   */\n      swap3\n      swap2\n      pop\n      pop\n      jump\t// out\n        /* \"#utility.yul\":4959:5150   */\n    tag_20:\n        /* \"#utility.yul\":4999:5002   */\n      0x00\n        /* \"#utility.yul\":5018:5038   */\n      tag_114\n        /* \"#utility.yul\":5036:5037   */\n      dup3\n        /* \"#utility.yul\":5018:5038   */\n      tag_49\n      jump\t// in\n    tag_114:\n        /* \"#utility.yul\":5013:5038   */\n      swap2\n      pop\n        /* \"#utility.yul\":5052:5072   */\n      tag_115\n        /* \"#utility.yul\":5070:5071   */\n      dup4\n        /* \"#utility.yul\":5052:5072   */\n      tag_49\n      jump\t// in\n    tag_115:\n        /* \"#utility.yul\":5047:5072   */\n      swap3\n      pop\n        /* \"#utility.yul\":5095:5096   */\n      dup3\n        /* \"#utility.yul\":5092:5093   */\n      dup3\n        /* \"#utility.yul\":5088:5097   */\n      add\n        /* \"#utility.yul\":5081:5097   */\n      swap1\n      pop\n        /* \"#utility.yul\":5116:5119   */\n      dup1\n        /* \"#utility.yul\":5113:5114   */\n      dup3\n        /* \"#utility.yul\":5110:5120   */\n      gt\n        /* \"#utility.yul\":5107:5143   */\n      iszero\n      tag_116\n      jumpi\n        /* \"#utility.yul\":5123:5141   */\n      tag_117\n      tag_50\n      jump\t// in\n    tag_117:\n        /* \"#utility.yul\":5107:5143   */\n    tag_116:\n        /* \"#utility.yul\":4959:5150   */\n      swap3\n      swap2\n      pop\n      pop\n      jump\t// out\n        /* \"#utility.yul\":5156:5336   */\n    tag_23:\n        /* \"#utility.yul\":5204:5281   */\n      0x4e487b7100000000000000000000000000000000000000000000000000000000\n        /* \"#utility.yul\":5201:5202   */\n      0x00\n        /* \"#utility.yul\":5194:5282   */\n      mstore\n        /* \"#utility.yul\":5301:5305   */\n      0x32\n        /* \"#utility.yul\":5298:5299   */\n      0x04\n        /* \"#utility.yul\":5291:5306   */\n      mstore\n        /* \"#utility.yul\":5325:5329   */\n      0x24\n        /* \"#utility.yul\":5322:5323   */\n      0x00\n        /* \"#utility.yul\":5315:5330   */\n      revert\n\n    auxdata: 0xa2646970667358221220d01a2a5abcf62c5a3d542a81c6893cd07b4bff6a2dc14154ebe5b595feeeb4e664736f6c634300081e0033\n}\n",
				"bytecode": {
					"linkReferences": {},
					"object": "6080604052348015600e575f5ffd5b506104f48061001c5f395ff3fe608060405234801561000f575f5ffd5b5060043610610029575f3560e01c8063a43b80661461002d575b5f5ffd5b61004760048036038101906100429190610316565b61005d565b604051610054919061037f565b60405180910390f35b5f5f83510361008e577fffffffffffffffffffffffffffffffffffffffffffffffffffffffffffffffff905061017c565b5f5f90505f600185516100a191906103ce565b90505b808211610156575f600283836100ba91906103ce565b6100c4919061042e565b836100cf919061045e565b9050848682815181106100e5576100e4610491565b5b6020026020010151036100fd5780935050505061017c565b8486828151811061011157610110610491565b5b602002602001015112156101335760018161012c919061045e565b9250610150565b5f81036101405750610156565b60018161014d91906103ce565b91505b506100a4565b7fffffffffffffffffffffffffffffffffffffffffffffffffffffffffffffffff925050505b92915050565b5f604051905090565b5f5ffd5b5f5ffd5b5f5ffd5b5f601f19601f8301169050919050565b7f4e487b71000000000000000000000000000000000000000000000000000000005f52604160045260245ffd5b6101dd82610197565b810181811067ffffffffffffffff821117156101fc576101fb6101a7565b5b80604052505050565b5f61020e610182565b905061021a82826101d4565b919050565b5f67ffffffffffffffff821115610239576102386101a7565b5b602082029050602081019050919050565b5f5ffd5b5f819050919050565b6102608161024e565b811461026a575f5ffd5b50565b5f8135905061027b81610257565b92915050565b5f61029361028e8461021f565b610205565b905080838252602082019050602084028301858111156102b6576102b561024a565b5b835b818110156102df57806102cb888261026d565b8452602084019350506020810190506102b8565b5050509392505050565b5f82601f8301126102fd576102fc610193565b5b813561030d848260208601610281565b91505092915050565b5f5f6040838503121561032c5761032b61018b565b5b5f83013567ffffffffffffffff8111156103495761034861018f565b5b610355858286016102e9565b92505060206103668582860161026d565b9150509250929050565b6103798161024e565b82525050565b5f6020820190506103925f830184610370565b92915050565b5f819050919050565b7f4e487b71000000000000000000000000000000000000000000000000000000005f52601160045260245ffd5b5f6103d882610398565b91506103e383610398565b92508282039050818111156103fb576103fa6103a1565b5b92915050565b7f4e487b71000000000000000000000000000000000000000000000000000000005f52601260045260245ffd5b5f61043882610398565b915061044383610398565b92508261045357610452610401565b5b828204905092915050565b5f61046882610398565b915061047383610398565b925082820190508082111561048b5761048a6103a1565b5b92915050565b7f4e487b71000000000000000000000000000000000000000000000000000000005f52603260045260245ffdfea2646970667358221220d01a2a5abcf62c5a3d542a81c6893cd07b4bff6a2dc14154ebe5b595feeeb4e664736f6c634300081e0033",
					"opcodes": "PUSH1 0x80 PUSH1 0x40 MSTORE CALLVALUE DUP1 ISZERO PUSH1 0xE JUMPI PUSH0 PUSH0 REVERT JUMPDEST POP PUSH2 0x4F4 DUP1 PUSH2 0x1C PUSH0 CODECOPY PUSH0 RETURN INVALID PUSH1 0x80 PUSH1 0x40 MSTORE CALLVALUE DUP1 ISZERO PUSH2 0xF JUMPI PUSH0 PUSH0 REVERT JUMPDEST POP PUSH1 0x4 CALLDATASIZE LT PUSH2 0x29 JUMPI PUSH0 CALLDATALOAD PUSH1 0xE0 SHR DUP1 PUSH4 0xA43B8066 EQ PUSH2 0x2D JUMPI JUMPDEST PUSH0 PUSH0 REVERT JUMPDEST PUSH2 0x47 PUSH1 0x4 DUP1 CALLDATASIZE SUB DUP2 ADD SWAP1 PUSH2 0x42 SWAP2 SWAP1 PUSH2 0x316 JUMP JUMPDEST PUSH2 0x5D JUMP JUMPDEST PUSH1 0x40 MLOAD PUSH2 0x54 SWAP2 SWAP1 PUSH2 0x37F JUMP JUMPDEST PUSH1 0x40 MLOAD DUP1 SWAP2 SUB SWAP1 RETURN JUMPDEST PUSH0 PUSH0 DUP4 MLOAD SUB PUSH2 0x8E JUMPI PUSH32 0xFFFFFFFFFFFFFFFFFFFFFFFFFFFFFFFFFFFFFFFFFFFFFFFFFFFFFFFFFFFFFFFF SWAP1 POP PUSH2 0x17C JUMP JUMPDEST PUSH0 PUSH0 SWAP1 POP PUSH0 PUSH1 0x1 DUP6 MLOAD PUSH2 0xA1 SWAP2 SWAP1 PUSH2 0x3CE JUMP JUMPDEST SWAP1 POP JUMPDEST DUP1 DUP3 GT PUSH2 0x156 JUMPI PUSH0 PUSH1 0x2 DUP4 DUP4 PUSH2 0xBA SWAP2 SWAP1 PUSH2 0x3CE JUMP JUMPDEST PUSH2 0xC4 SWAP2 SWAP1 PUSH2 0x42E JUMP JUMPDEST DUP4 PUSH2 0xCF SWAP2 SWAP1 PUSH2 0x45E JUMP JUMPDEST SWAP1 POP DUP5 DUP7 DUP3 DUP2 MLOAD DUP2 LT PUSH2 0xE5 JUMPI PUSH2 0xE4 PUSH2 0x491 JUMP JUMPDEST JUMPDEST PUSH1 0x20 MUL PUSH1 0x20 ADD ADD MLOAD SUB PUSH2 0xFD JUMPI DUP1 SWAP4 POP POP POP POP PUSH2 0x17C JUMP JUMPDEST DUP5 DUP7 DUP3 DUP2 MLOAD DUP2 LT PUSH2 0x111 JUMPI PUSH2 0x110 PUSH2 0x491 JUMP JUMPDEST JUMPDEST PUSH1 0x20 MUL PUSH1 0x20 ADD ADD MLOAD SLT ISZERO PUSH2 0x133 JUMPI PUSH1 0x1 DUP2 PUSH2 0x12C SWAP2 SWAP1 PUSH2 0x45E JUMP JUMPDEST SWAP3 POP PUSH2 0x150 JUMP JUMPDEST PUSH0 DUP2 SUB PUSH2 0x140 JUMPI POP PUSH2 0x156 JUMP JUMPDEST PUSH1 0x1 DUP2 PUSH2 0x14D SWAP2 SWAP1 PUSH2 0x3CE JUMP JUMPDEST SWAP2 POP JUMPDEST POP PUSH2 0xA4 JUMP JUMPDEST PUSH32 0xFFFFFFFFFFFFFFFFFFFFFFFFFFFFFFFFFFFFFFFFFFFFFFFFFFFFFFFFFFFFFFFF SWAP3 POP POP POP JUMPDEST SWAP3 SWAP2 POP POP JUMP JUMPDEST PUSH0 PUSH1 0x40 MLOAD SWAP1 POP SWAP1 JUMP JUMPDEST PUSH0 PUSH0 REVERT JUMPDEST PUSH0 PUSH0 REVERT JUMPDEST PUSH0 PUSH0 REVERT JUMPDEST PUSH0 PUSH1 0x1F NOT PUSH1 0x1F DUP4 ADD AND SWAP1 POP SWAP2 SWAP1 POP JUMP JUMPDEST PUSH32 0x4E487B7100000000000000000000000000000000000000000000000000000000 PUSH0 MSTORE PUSH1 0x41 PUSH1 0x4 MSTORE PUSH1 0x24 PUSH0 REVERT JUMPDEST PUSH2 0x1DD DUP3 PUSH2 0x197 JUMP JUMPDEST DUP2 ADD DUP2 DUP2 LT PUSH8 0xFFFFFFFFFFFFFFFF DUP3 GT OR ISZERO PUSH2 0x1FC JUMPI PUSH2 0x1FB PUSH2 0x1A7 JUMP JUMPDEST JUMPDEST DUP1 PUSH1 0x40 MSTORE POP POP POP JUMP JUMPDEST PUSH0 PUSH2 0x20E PUSH2 0x182 JUMP JUMPDEST SWAP1 POP PUSH2 0x21A DUP3 DUP3 PUSH2 0x1D4 JUMP JUMPDEST SWAP2 SWAP1 POP JUMP JUMPDEST PUSH0 PUSH8 0xFFFFFFFFFFFFFFFF DUP3 GT ISZERO PUSH2 0x239 JUMPI PUSH2 0x238 PUSH2 0x1A7 JUMP JUMPDEST JUMPDEST PUSH1 0x20 DUP3 MUL SWAP1 POP PUSH1 0x20 DUP2 ADD SWAP1 POP SWAP2 SWAP1 POP JUMP JUMPDEST PUSH0 PUSH0 REVERT JUMPDEST PUSH0 DUP2 SWAP1 POP SWAP2 SWAP1 POP JUMP JUMPDEST PUSH2 0x260 DUP2 PUSH2 0x24E JUMP JUMPDEST DUP2 EQ PUSH2 0x26A JUMPI PUSH0 PUSH0 REVERT JUMPDEST POP JUMP JUMPDEST PUSH0 DUP2 CALLDATALOAD SWAP1 POP PUSH2 0x27B DUP2 PUSH2 0x257 JUMP JUMPDEST SWAP3 SWAP2 POP POP JUMP JUMPDEST PUSH0 PUSH2 0x293 PUSH2 0x28E DUP5 PUSH2 0x21F JUMP JUMPDEST PUSH2 0x205 JUMP JUMPDEST SWAP1 POP DUP1 DUP4 DUP3 MSTORE PUSH1 0x20 DUP3 ADD SWAP1 POP PUSH1 0x20 DUP5 MUL DUP4 ADD DUP6 DUP2 GT ISZERO PUSH2 0x2B6 JUMPI PUSH2 0x2B5 PUSH2 0x24A JUMP JUMPDEST JUMPDEST DUP4 JUMPDEST DUP2 DUP2 LT ISZERO PUSH2 0x2DF JUMPI DUP1 PUSH2 0x2CB DUP9 DUP3 PUSH2 0x26D JUMP JUMPDEST DUP5 MSTORE PUSH1 0x20 DUP5 ADD SWAP4 POP POP PUSH1 0x20 DUP2 ADD SWAP1 POP PUSH2 0x2B8 JUMP JUMPDEST POP POP POP SWAP4 SWAP3 POP POP POP JUMP JUMPDEST PUSH0 DUP3 PUSH1 0x1F DUP4 ADD SLT PUSH2 0x2FD JUMPI PUSH2 0x2FC PUSH2 0x193 JUMP JUMPDEST JUMPDEST DUP2 CALLDATALOAD PUSH2 0x30D DUP5 DUP3 PUSH1 0x20 DUP7 ADD PUSH2 0x281 JUMP JUMPDEST SWAP2 POP POP SWAP3 SWAP2 POP POP JUMP JUMPDEST PUSH0 PUSH0 PUSH1 0x40 DUP4 DUP6 SUB SLT ISZERO PUSH2 0x32C JUMPI PUSH2 0x32B PUSH2 0x18B JUMP JUMPDEST JUMPDEST PUSH0 DUP4 ADD CALLDATALOAD PUSH8 0xFFFFFFFFFFFFFFFF DUP2 GT ISZERO PUSH2 0x349 JUMPI PUSH2 0x348 PUSH2 0x18F JUMP JUMPDEST JUMPDEST PUSH2 0x355 DUP6 DUP3 DUP7 ADD PUSH2 0x2E9 JUMP JUMPDEST SWAP3 POP POP PUSH1 0x20 PUSH2 0x366 DUP6 DUP3 DUP7 ADD PUSH2 0x26D JUMP JUMPDEST SWAP2 POP POP SWAP3 POP SWAP3 SWAP1 POP JUMP JUMPDEST PUSH2 0x379 DUP2 PUSH2 0x24E JUMP JUMPDEST DUP3 MSTORE POP POP JUMP JUMPDEST PUSH0 PUSH1 0x20 DUP3 ADD SWAP1 POP PUSH2 0x392 PUSH0 DUP4 ADD DUP5 PUSH2 0x370 JUMP JUMPDEST SWAP3 SWAP2 POP POP JUMP JUMPDEST PUSH0 DUP2 SWAP1 POP SWAP2 SWAP1 POP JUMP JUMPDEST PUSH32 0x4E487B7100000000000000000000000000000000000000000000000000000000 PUSH0 MSTORE PUSH1 0x11 PUSH1 0x4 MSTORE PUSH1 0x24 PUSH0 REVERT JUMPDEST PUSH0 PUSH2 0x3D8 DUP3 PUSH2 0x398 JUMP JUMPDEST SWAP2 POP PUSH2 0x3E3 DUP4 PUSH2 0x398 JUMP JUMPDEST SWAP3 POP DUP3 DUP3 SUB SWAP1 POP DUP2 DUP2 GT ISZERO PUSH2 0x3FB JUMPI PUSH2 0x3FA PUSH2 0x3A1 JUMP JUMPDEST JUMPDEST SWAP3 SWAP2 POP POP JUMP JUMPDEST PUSH32 0x4E487B7100000000000000000000000000000000000000000000000000000000 PUSH0 MSTORE PUSH1 0x12 PUSH1 0x4 MSTORE PUSH1 0x24 PUSH0 REVERT JUMPDEST PUSH0 PUSH2 0x438 DUP3 PUSH2 0x398 JUMP JUMPDEST SWAP2 POP PUSH2 0x443 DUP4 PUSH2 0x398 JUMP JUMPDEST SWAP3 POP DUP3 PUSH2 0x453 JUMPI PUSH2 0x452 PUSH2 0x401 JUMP JUMPDEST JUMPDEST DUP3 DUP3 DIV SWAP1 POP SWAP3 SWAP2 POP POP JUMP JUMPDEST PUSH0 PUSH2 0x468 DUP3 PUSH2 0x398 JUMP JUMPDEST SWAP2 POP PUSH2 0x473 DUP4 PUSH2 0x398 JUMP JUMPDEST SWAP3 POP DUP3 DUP3 ADD SWAP1 POP DUP1 DUP3 GT ISZERO PUSH2 0x48B JUMPI PUSH2 0x48A PUSH2 0x3A1 JUMP JUMPDEST JUMPDEST SWAP3 SWAP2 POP POP JUMP JUMPDEST PUSH32 0x4E487B7100000000000000000000000000000000000000000000000000000000 PUSH0 MSTORE PUSH1 0x32 PUSH1 0x4 MSTORE PUSH1 0x24 PUSH0 REVERT INVALID LOG2 PUSH5 0x6970667358 0x22 SLT KECCAK256 0xD0 BYTE 0x2A GAS 0xBC 0xF6 0x2C GAS RETURNDATASIZE SLOAD 0x2A DUP2 0xC6 DUP10 EXTCODECOPY 0xD0 PUSH28 0x4BFF6A2DC14154EBE5B595FEEEB4E664736F6C634300081E00330000 "
				},
				"gasEstimates": {
					"creation": {
						"codeDepositCost": "253600",
						"executionCost": "292",
						"totalCost": "253892"
					},
					"external": {
						"BiSearch(int256[],int256)": "infinite"
					}
				},
				"methodIdentifiers": {
					"BiSearch(int256[],int256)": "a43b8066"
				}
			},
			"storageLayout": {
				"storage": [],
				"types": null
			},
			"userdoc": {
				"kind": "user",
				"methods": {},
				"version": 1
			}
		}
	}
}